:020000040800F2
:1000000060140020090F00089D0200089F020008EC
:10001000A3020008A7020008AB02000800000000CD
:10002000000000000000000000000000B102000815
:10003000AF02000800000000B3020008B50200088B
:10004000B7020008B9020008BB020008BD020008A0
:10005000BF020008C1020008AF280008CD28000830
:10006000F3280008451800084D180008C3020008CE
:10007000C5020008C7020008C9020008CB02000838
:10008000CD020008CF020008D1020008D302000808
:10009000D5020008D7020008D90200080123000891
:1000A000DB020008DD020008DF020008E1020008B0
:1000B000E3020008131A00080F1F0008E5020008F9
:1000C000E7020008E9020008EB020008ED02000860
:1000D000EF020008F3210008F1020008F302000813
:1000E00055180008F5020008F7020008F902000898
:1000F000FB020008FD020008FF02000801030008DF
:1001000003030008050300080703000809030008AB
:100110000B0300080D0300080F030008110300087B
:10012000130300081503000817030008190300084B
:1001300000F002F800F03CF80AA090E8000C8244BD
:100140008344AAF10107DA4501D100F031F8AFF29A
:10015000090EBAE80F0013F0010F18BFFB1A43F0A5
:10016000010318472C8900004C890000103A24BF75
:1001700078C878C1FAD8520724BF30C830C144BF0C
:1001800004680C607047000000230024002500264E
:10019000103A28BF78C1FBD8520728BF30C148BFEA
:1001A0000B6070471FB508F0B8F91FBD10B510BD42
:1001B00006F036F81146FFF7F5FF00F009F806F0F3
:1001C00054F803B4FFF7F2FF03BC06F05BF800003D
:1001D00000F0ACFE482000F0BBFF01F009F801F090
:1001E00017FA4FF4E13001F0ADFA01F0F3FA01F043
:1001F0007BFA01F0C3FF04F08BF801F0EAFE00F097
:1002000017FB1421234805F0CBFF0120214908707A
:10021000487000BF1F48007888B301F0E5FF05F083
:1002200054FC04F08AFB02F01FFB02F061FD02F0B7
:100230009BFD02F04FF801F0BDFE02F086FE0020AB
:10024000144908708870144890F8280010F0020FC4
:1002500001D0012008740F484078012808D10E48C9
:1002600090F8280010F0100F02D0062009494870BD
:1002700008484078062803D1022002F04BFF04E032
:1002800000200449487002F0F5FA02F045FB02F044
:10029000B4FCBFE718000020E8060020704700BF4C
:1002A000FEE700BFFEE700BFFEE700BFFEE77047C6
:1002B0007047704770477047704770477047704786
:1002C0007047704770477047704770477047704776
:1002D0007047704770477047704770477047704766
:1002E0007047704770477047704770477047704756
:1002F0007047704770477047704770477047704746
:100300007047704770477047704770477047704735
:10031000704770477047704770470000DA480068C0
:1003200040F00100D849086008464068D7490840B5
:10033000D549486008460068D5490840D249086058
:100340000846006820F4802008600846406820F4D1
:10035000FE004860002088607047CB49096821F49E
:100360008031C94A11601146096821F48021116069
:10037000B0F5803F03D0B0F5802F0ED106E0C24922
:10038000096841F48031C04A116007E0BE4909683C
:1003900041F4A021BC4A116000E000BF00BF7047DB
:1003A00010B501460022002300204A11012A02D183
:1003B000B54C236806E0022A02D1B34C236A01E05F
:1003C000B14C636A01F01F02012494401C4201D029
:1003D000012000E0002010BD70B50024002500269B
:1003E00000BF3120FFF7DCFF0646641C16B9B4F5E8
:1003F000A06FF6D13120FFF7D3FF08B1012500E04F
:100400000025284670BD014600209F4A106820F054
:10041000F80040EAC100106070479E4908607047CC
:1004200002460020984B586820F47C1042EA0103F1
:100430001843954B586070479649086670470146C7
:100440000020914A506820F0030008435060704734
:100450008D48406800F00C007047014600208A4A31
:10046000506820F0F00008435060704701460020BB
:10047000854A506820F4E0600843506070470146A8
:100480000020814A506820F4605040EAC10050606A
:10049000704729B17C4A527A02437B4B5A7206E07C
:1004A000794A527AC343DBB21A40774B5A7270478B
:1004B00079490860704701460020734A506820F46B
:1004C00040400843506070470021744A11706E4AE2
:1004D00082F82010012802D0042808D103E001216D
:1004E0006E4A117004E005216C4A117000E000BFF3
:1004F00000BF70476A49086070476349096A014351
:10050000614A1162704767490860704730B5002141
:100510000022002400235C4D6D6805F00C0121B120
:10052000042905D0082923D105E05F4D056022E0AC
:100530005D4D05601FE0544D6D6805F47012022595
:1005400005EB9242504D6D6805F480341CB9574D4F
:10055000554305600BE04C4D6D6815F4003F03D02A
:10056000524D5543056002E04F4D5543056002E092
:100570004D4D056000BF00BF434D6D6805F0F001B3
:1005800009094B4D6B5C0568DD4045603E4D6D686B
:1005900005F4E061090A464D6B5C4568DD40856005
:1005A000394D6D6805F46051C90A414D6B5C456871
:1005B000DD40C560344D6D6805F44041890B3D4D0B
:1005C0006B5CC568B5FBF3F5056130BD29B12E4AFA
:1005D000526902432C4B5A6104E02B4A5269824310
:1005E000294B5A61704729B1274A92690243264B29
:1005F0009A6104E0244A92698243234B9A617047CE
:1006000029B1214AD26902431F4BDA6104E01E4A34
:10061000D26982431C4BDA61704729B11A4AD26809
:100620000243194BDA6004E0174AD2688243164B42
:10063000DA60704729B1144A12690243124B1A61F9
:1006400004E0114A126982430F4B1A6170471A493C
:10065000086070470F49C86470470B49C8717047FC
:100660000948406A40F08070074948627047014677
:100670000020054A92680A4201D0012000E00020D3
:100680007047014988727047001002400000FFF86F
:10069000FFFFF6FE00004242D80042422010024016
:1006A000800442423C04424200127A0000093D00AC
:1006B0008687000896870008400442420020411EB9
:1006C000F84A11606FF07042F749C1F884204FF08A
:1006D000FF314FF0E022C2F880126FF07042F34910
:1006E0000A6000BF04E00022F14941F82020401CCC
:1006F0000F28F8D3704700204FF02061ED4A1160B9
:1007000001464FF0E022C2F8081DEB49EB4A1160A8
:10071000014602F10402116002F10402116000BFFF
:1007200005E00022E5490C3141F82020401C032857
:10073000F7D30021E24A11604FF0FF314FF0E02281
:10074000C2F8281DDF4A11604FF0E022C2F8301DC8
:100750007047D9490143D94A11607047F0B500216B
:100760000022002300250F24C678EEB3D34E36684E
:1007700006F4E066C6F5E0664FEA1621C1F104050D
:1007800024FA01F4467806FA05F1867806EA0406AA
:1007900046EA01014FEA011106784FEA86764FEAF0
:1007A000D66601FA06F1C24E07784FEAA70756F857
:1007B000272006784FEA86764FEAD6674FF0FF0685
:1007C00006FA07F322EA030201EA030142EA010200
:1007D000B74E07784FEAA70746F82720067806F0B5
:1007E0001F074FF0010600E00BE006FA07F6077856
:1007F0004FEA67174FF0E02C0CEB8707C7F8006152
:100800000BE0067806F01F070126BE40A54F90F8C2
:1008100000C04FEA6C1C47F82C60F0BD002101704D
:1008200041708170C170704710B500F056FB10BD6B
:1008300010B500F050FB10BD10B500F053FB10BD1B
:1008400010B500F051FB10BD10B50446200100F0BA
:1008500050FB10BD10B500F04FFB10BD954800686F
:10086000C0F30930704710B501460020002201F0A6
:100870001F04012303FA04F28A4B80334C1153F80E
:1008800024301340934201D1012000E0002010BD2C
:100890008D490860704700F01F0201219140834A92
:1008A000121F431142F82310704782480068C0F3BA
:1008B0000900704710B501460020002201F01F0416
:1008C000012303FA04F2794B7C334C1153F82430A2
:1008D0001340934201D1012000E0002010BD7B486D
:1008E000006870477A4A0A4002437A4B1A607047A0
:1008F0007148001D7149086070476F48401C6F497E
:100900000860704741B1744A126842EA00024FF031
:10091000E023C3F8102D07E06F4A126822EA0002B4
:100920004FF0E023C3F8102D704710B5002200F0FF
:100930001F04012303FA04F241B1614B1B6843EA2F
:1009400002034FF0E024C4F8243D07E05C4B1B6831
:1009500023EA02034FF0E024C4F8243D10BDF0B5B3
:1009600003460C4615460020FF2200260021534F67
:100970003F6807F4E067C7F5E0674FEA1721C1F168
:10098000040022FA01F204FA00F105EA020747EA3C
:1009900001014FEA011103F0C0004FEA9010C3F3C8
:1009A00001224FEAC20701FA07F14FEAC20C4FF0E9
:1009B000FF0707FA0CF6494F57F8207027EA060799
:1009C000DFF818C14CF82070674657F8207047EAE6
:1009D00001074CF82070F0BD10B50246002000233E
:1009E0000021910A01F00F01012404FA01F1344CB5
:1009F000246804EA01038B4201D1012000E00020B9
:100A000010BD002100F01F012A4A12684FF00103B7
:100A100003FA01F342EA03024FF0E023C3F8042D86
:100A2000704710B5002100F01F01224A1268A1F1A1
:100A300001034FF0010404FA03F442EA04024FF008
:100A4000E023C3F8042D10BD10B50246002000239A
:100A50000021C2F38331012404FA01F1184C246807
:100A600004EA01038B4201D1012000E0002010BD07
:100A700030B50146002000220023C1F38142C1F3BA
:100A8000015312B90F4C206830E0012A2CD1144CCC
:100A900024684FEAC30524FA05F0022B22D000F0A7
:100AA0000F0023E080E100E000E100E084E200E0EC
:100AB00000E400E004ED00E00000FA050CED00E0C9
:100AC00024ED00E02CED00E000EF00E000ED00E0A0
:100AD00080FFFF1F08ED00E010ED00E018ED00E0E2
:100AE00028ED00E0C0B201E0074C206830BD0146AF
:100AF00000200022C1F3805212B9044B186801E0B3
:100B0000034B18687047000030ED00E034ED00E062
:100B100038ED00E010B50446D949601A8C422BD05C
:100B200006DCD848201813D0B0F5806F38D119E012
:100B3000B0F5806F2AD0B0F56C4F31D10121880318
:100B4000FFF76BFD00214FF48040FFF766FD28E0C2
:100B500001214804FFF76EFD00214FF40030FFF73C
:100B600069FD1EE001218804FFF764FD00214FF4B8
:100B70008020FFF75FFD14E00121C804FFF75AFD54
:100B800000214FF40020FFF755FD0AE00121080580
:100B9000FFF750FD00214FF48010FFF74BFD00E000
:100BA00000BF00BF10BD2DE9F04786B005460E46D8
:100BB0000024A24600BF00BF00272F462C8A4CF617
:100BC000FF700440F08804432C82AC894EF6F31089
:100BD0000440B08831890843718908430443AC81DB
:100BE000AC8A4FF6FF400440B0890443AC8201A8B0
:100BF000FFF78CFCA448874202D1DDF810A001E089
:100C0000DDF80CA00AEBCA0000EB0A10316889007D
:100C1000B0FBF1F86420B8FBF0F004012009642176
:100C200001FB1089322000EB0910B0FBF1F000F05D
:100C30000F0004432C8106B0BDE8F0874FF4165135
:100C4000016000218180C18001810C21418100214E
:100C50008181704710B502460020108A4FF2FF03D1
:100C600018400B884C8823438C882343CC8823432B
:100C70001843108210BD0021018041808180C18015
:100C8000704721B1828942F40052828104E0828956
:100C90004DF6FF731A4082817047F0B50346002479
:100CA0000026002500201846C1F3421401F01F065B
:100CB000012707FA06F5012C01D10C3004E0022CC3
:100CC00001D1103000E014301AB107682F430760DB
:100CD00002E00768AF430760F0BD10B51AB1838A20
:100CE0000B43838204E0838ACC43A4B223408382F3
:100CF00010BD028A4FF6F0731A400282028A0A433C
:100D00000282704782894FF2FF731A408281828982
:100D10000A438281704721B1828942F002028281B6
:100D200004E082894FF6FD731A4082817047028A7F
:100D30004FF6DF731A400282028A0A43028270472A
:100D400021B1028A42F48042028204E0028A4BF618
:100D5000FF731A4002827047C1F308028280704715
:100D600001468888C0F308007047818941F001017D
:100D700081817047028BD2B20283028B42EA012248
:100D800002837047028B02F47F420283028B0A4384
:100D90000283704721B1828A42F02002828204E0FD
:100DA000828A4FF6DF731A408282704721B1828AAD
:100DB00042F01002828204E0828A4FF6EF731A40FA
:100DC0008282704721B1828A42F00802828204E066
:100DD000828A4FF6F7731A4082827047828A4FF6F2
:100DE000FB731A408282828A0A438282704721B151
:100DF000828A42F00202828204E0828A4FF6FD7308
:100E00001A40828270470246002013880B4201D0AC
:100E1000012000E000207047CA430280704770B58F
:100E200002460B460024002100250020C3F3421592
:100E300003F01F01012606FA01F1012D02D1968966
:100E4000314006E0022D02D1168A314001E0968A37
:100E500031401C12012606FA04F41688344011B100
:100E60000CB1012000E0002070BD10B5002200236D
:100E70000A1201249440A3B2DC43048010BD000098
:100E8000004C004000BCFFBF0038014030BF70473D
:100E900020BF704740BF7047BFF36F8F7047BFF3ED
:100EA0004F8F7047BFF35F8F704701DF7047EFF3DD
:100EB0001480704780F31488BFF36F8F7047EFF38F
:100EC0000980704780F309887047EFF30880704706
:100ED00080F30888704762B6704772B67047EFF3C8
:100EE0001080704771B6704761B67047EFF313809A
:100EF000704780F311887047EFF31280704740BA53
:100F0000704700BA7047000003480047034804498F
:100F1000044A054B7047000031010008600C0020B6
:100F200060140020601000206010002070B50025C3
:100F30000024FFF7F3F97748006840F480307549E2
:100F4000086000BF01E0601CC4B272480068400C39
:100F500001D1C82CF7DB7048006840F032006E49C0
:100F600008606C4840686D4908436A494860084613
:100F7000006840F080700860002401E0601CC4B28A
:100F800064480068400E01D1C82CF7DB6148406816
:100F900040F002005F49486007E05E484068C0F3E7
:100FA0008705601CC4B205F00305022D01D0C82CD2
:100FB000F3DB70BD5A4A0A4002435A4B1A6070472D
:100FC0000146072323EA01021202574B18684FF625
:100FD000FF0300EA0300554B40EA030040EA020029
:100FE0004FF0E023C3F80C0D70472DE9F047804621
:100FF000894614461D462046E11704EB91714FEADD
:10100000A10AE11704EB91718910A4EB8101CFB221
:10101000042000EBC700C7B22846FFF7D1FFC5F197
:10102000040008FA00F60F20284100EA09000643F0
:1010300006F00F06202C0CDA3D4800684FF0010145
:1010400001FA04F140EA01004FF0E021C1F800018B
:101050000DE038480068A4F120014FF0010202FAC7
:1010600001F240EA02004FF0E021C1F804013248E9
:1010700050F82A0006FA07F108432F4941F82A00E0
:10108000BDE8F08770B503460846CE1701EB9676AB
:10109000B410CE1701EB9676B610A1EB8606B60615
:1010A000350E1C48806940F001001A4EB0614FEACD
:1010B000B63050F8240003FA05F606431F4840F8FE
:1010C00024601F4800684FF0010606FA01F640EA66
:1010D00006001C4EC6F8000412F0010F0AD01A4890
:1010E00000684FF0010606FA01F640EA0600154EC8
:1010F000C6F80C0412F0020F0AD0144800684FF032
:10110000010606FA01F640EA06000E4EC6F808048B
:1011100070BD0000001002400020024000241D00AD
:1011200080FFFF1F08ED00E00CED00E00000FA0575
:1011300000E100E004E100E000E400E0080001401C
:1011400000040140000001400C040140080401407B
:101150004FF0E021096921F004014FF0E022116114
:10116000C21700EB5272D2101F4B1A701946097841
:101170004FF47A7251431D4A1180704701461A4A52
:1011800012784A434FF0E0235A6100229A6101220B
:101190001A6100BF4FF0E022106910F0010F02D079
:1011A00010F4803FF6D000224FF0E0231A619A61DC
:1011B000704701460D4A12884A434FF0E0235A61B6
:1011C00000229A6101221A6100BF4FF0E0221069EB
:1011D00010F0010F02D010F4803FF6D000224FF043
:1011E000E0231A619A61704700000020020000208D
:1011F0007A48806940F00C00784988617848006836
:1012000020F470007749C1F8000C0846D0F8000CB3
:1012100040F44010C1F8000C0846D0F8000C20F053
:101220007060C1F8000C0846D0F8000C40F0407027
:10123000C1F8000C0846D0F8000C20F07040C1F84E
:10124000000C0846D0F8000C40F04050C1F8000CEB
:101250000846D0F8040C20F00F00C1F8040C084632
:10126000D0F8040C40F00300C1F8040C0846D0F894
:10127000040C20F0F000C1F8040C0846D0F8040C6F
:1012800040F03000C1F8040C0846D0F8040C20F4FB
:101290007060C1F8040C0846D0F8040C40F44070AB
:1012A000C1F8040C0846D0F8040C20F47040C1F8D2
:1012B000040C0846D0F8040C40F44050C1F8040C6B
:1012C0000846D0F8040820F47040C1F80408084625
:1012D000D0F8040840F44050C1F804080846D0F89B
:1012E000040820F47020C1F804080846D0F8040867
:1012F00040F44030C1F804080846D0F8000C20F053
:101300000F00C1F8000C0846D0F8000C40F00300B4
:10131000C1F8000C0846D0F8000820F07060C1F851
:1013200000080846D0F8000840F00060C1F8000846
:101330000846D0F8000820F07040C1F800080846C0
:10134000D0F8000840F00040C1F800080846D0F886
:10135000000820F07060C1F800080846D0F80008C6
:1013600040F00060C1F800080846D0F80C0840F4CE
:10137000E070C1F80C080846D0F8000820F00F0013
:10138000C1F800080846D0F8000840F00800C1F88D
:1013900000080846D0F8000820F0F000C1F8000866
:1013A0000846D0F8000840F08000C1F80008084660
:1013B000D0F8000820F47060C1F800080846D0F8A2
:1013C000000840F40060C1F800080846D0F80C0896
:1013D00040F00700C1F80C08704700000010024000
:1013E000000C014000000140B848B9494860B948C4
:1013F00048607047B648006940F08000B449086111
:101400007047B348C16811F0010F01D00120704747
:1014100011F0040F01D00220F9E711F0100F01D0F4
:101420000320F4E70020F2E770B5044600BFFFF7A1
:10143000E8FF0546012D00D006E0012001F064FD23
:10144000601E84B2002CF2D100BF04B9FF252846EB
:1014500070BD70B50546002445F6FF70FFF7E4FF48
:101460000446C4B99A48006940F0020098490861EE
:1014700008464561006940F04000086145F6FF708C
:10148000FFF7D2FF0446012C05D09148006920F0F7
:1014900002008F490861204670BD70B505460E46B2
:1014A000FF20FFF7C1FF044694B98948006940F066
:1014B0000100874908612E80FF20FFF7B5FF044631
:1014C000012C05D08248006920F0010080490861A4
:1014D000204670BD01460888704730B503460C466B
:1014E0001546002207E01846FFF7F4FF24F8120023
:1014F0009B1C501C82B2AA42F5DB30BD2DE9F041A5
:1015000005460E461746002407E036F81410284614
:10151000FFF7C3FFAD1C601C84B2BC42F5DBBDE825
:10152000F0812DE9F05F80468A461746B8F1006FDA
:1015300002D36948804501D3BDE8F09FFFF754FF0F
:10154000A8F1006B4FEA9B25CBF34809C9F500745D
:10155000A74200DC3C464DE04FF0006101EB8520E6
:101560008A145E49FFF7B9FF00260BE009EB06007D
:101570005A4931F81000A0F57F41FF3900D003E04F
:10158000701C86B2A642F1DB00BFA6421BDA4FF008
:10159000006101EB8520FFF75CFF002608E03AF8C8
:1015A000160006EB09014D4A22F81100701C86B2A4
:1015B000A642F4DB4FF0006101EB85208A14474915
:1015C000FFF79CFF04E0224651464046FFF796FF96
:1015D000A74200D10FE06D1C4FF000090AEB440A4E
:1015E000A044381B87B2B7F5007F02DD4FF40074CA
:1015F00000E03C46B0E700BFFFF7FCFE00BF9BE702
:1016000013B50446012201A92046FFF78AFF1CBD3D
:1016100010B54FF4C871324804F0A0FDC82230491B
:101620003048FFF75AFF10BD30B504460025B4F529
:10163000C87F14D2C8222A492A48FFF74EFF14F067
:10164000010F05D16008264931F81000C5B206E047
:101650006008234931F8100000F47F400512284645
:1016600030BD70B504460D46B4F5C87F2CD214F0D9
:10167000010F12D160081A4931F8100000F47F40C0
:101680006108174A22F811006008114631F810006D
:101690002843610822F8110011E06008104931F870
:1016A0001000C0B261080E4A22F81100600811460D
:1016B00031F8100040EA0520610822F81100C82224
:1016C00007490848FFF72DFF70BD0000230167455B
:1016D00000200240AB89EFCD00000108BC010020D2
:1016E0002C00002000FC000810B51448C06940F030
:1016F00006001249C8611248008840F001004FF00E
:101700008041A1F80C044FF002034FF01D0219466E
:101710004FF00100FFF769FC4FF08040B0F80C0873
:1017200040F001004FF08041A1F80C0802231E2276
:1017300001210020FFF759FC10BD000000100240FD
:101740000C0400401FB504461E48806940F00400A8
:101750001C4988610846806940F4804088611A48C5
:10176000006820F47F601949C1F804080846D0F8E1
:10177000040840F40B60C1F8040800944FF0000026
:10178000ADF80400ADF80600ADF80800ADF80C00A7
:101790004FF00C00ADF80A0069460D48FFF703FA58
:1017A000012240F225510A48FFF777FA0223252249
:1017B00000210846FFF719FC01210548FFF761FAEF
:1017C0001FBD00000010024004080140000001405D
:1017D0000038014010B5012206210020FFF752FC1D
:1017E000012207210020FFF74DFC012208210020E3
:1017F000FFF748FC0223172200210846FFF7F5FBFC
:10180000012200210846FFF73DFC022306220021A9
:101810000846FFF7EAFB012211460020FFF732FCE1
:101820000223072200210846FFF7DFFB01220221E5
:101830000020FFF727FC0223082200210846FFF7BB
:10184000D4FB10BD082010490860704710200E49D5
:10185000086070474FF480600B4908604FF40060E7
:101860000A49C1F814044FF48050074908604FF446
:10187000005008604FF4804008604FF40040034976
:10188000C1F8140470470000140401400000014036
:10189000FF4890F8280010F0040F07D0FD480068BA
:1018A00040F40060FC49C1F80C0C06E0F9480068FF
:1018B00020F40060F849C1F80C0CF848407803287F
:1018C00010D1F348007EF6490870F148407B801E35
:1018D000F4490870F448008840F001004FF080415E
:1018E000A1F80004704710B5EF48008820F001000F
:1018F0004FF08041A1F80004E54890F83C00FF2833
:1019000004D1E648807810F0200F19D0E04991F812
:101910003C0001F0EDFADE4890F8280010F0040FCA
:1019200007D0DC48006820F40060DB49C1F80C0CEB
:1019300006E0D848006840F40060D749C1F80C0CB4
:1019400010BDDA488069D94949690844D749886196
:1019500008468069D649884206D9D4488069401A29
:10196000D2498861012070470020FCE730B502466B
:10197000B2F5803F03D291B20123084626E0B2F5CA
:10198000002F04D2C2F3CF010823C8001EE0B2F535
:10199000800F04D2C2F38F114023880116E0B2F108
:1019A000807F05D2C2F30F214FF4807308020DE04F
:1019B000B2F1806F05D2C2F38F214FF480638802A9
:1019C00004E04FF6FF714FF4806388024C1EB94D5E
:1019D0002C8003EBC304A4B24FF00105C5EB6404F3
:1019E0004FF08045A5F8284430BD70B50446B4F5E5
:1019F000487F01D24FF448744FF48750B0FBF4F0A5
:101A0000AD4900FB01F52846FFF7B0FFA749486143
:101A100070BD10B50024A948008810F0010F74D0E3
:101A2000A748007800B110BD9D48007800F0200460
:101A30003CB99848006820F480709749C1F80C0CB4
:101A400006E09448006840F480709349C1F80C0C9B
:101A50009348007800F040043CB98E48006820F4B8
:101A600000708D49C1F80C0C06E08A48006840F40B
:101A700000708949C1F80C0C8948007800F0800496
:101A80003CB98448006820F480608349C1F80C0C9C
:101A900006E08048006840F480607F49C1F80C0C83
:101AA0007F48007800F004043CB97A48006820F0D0
:101AB00020007949C1F80C0C06E07648006840F037
:101AC00020007549C1F80C0C7548007800F0080436
:101AD0003CB97048006820F040006F49C1F80C0C18
:101AE00006E06C48006840F040006B49C1F80C0CFF
:101AF0006B48007800F0100444B96648006820F094
:101B000080006549C1F80C0C07E0F6E16148006807
:101B100040F080006049C1F80C0C6148007800F08A
:101B200020043CB95B48006820F480705A49C1F831
:101B30000C0C06E05748006840F480705649C1F824
:101B40000C0C5748007800F040043CB9514800683C
:101B500020F400705049C1F80C0C06E04D480068B4
:101B600040F400704C49C1F80C0C4D48007800F06E
:101B700080043CB94748006820F480604649C1F8B9
:101B80000C0C06E04348006840F480604249C1F80C
:101B90000C0C44480078401E4A4908804FF047002A
:101BA0004FF08041A1F828080846B0F8000840F03E
:101BB0000100454908804FF0010041490870FEF7D7
:101BC00037FE4248006870BB03F095FF3F4908604C
:101BD0000846006840B33148407803280AD10846D7
:101BE0000068806A3149C861C869FFF7FEFE38485D
:101BF0002E49886135480068006B00EB60002B4976
:101C00000862324800680069401040420860084697
:101C1000006848600846006888602C4800680069D1
:101C2000C8600020086107E0FFF75DFE1B48807870
:101C300040F00400194988702448006838B32348EC
:101C40000068007816490870184800681F4909683C
:101C5000496808441549086008460068002840DDC6
:101C60000F48007840F004000D4908700F480068E4
:101C70000E49C968401A0D4908600948007810F0FB
:101C8000200F29D005484068401E044922E0CBE0DF
:101C9000E80600200C0C0140000001401800002064
:101CA000090000200800002000040040BC050020BE
:101CB00000F915002C04004040420F0010040040C1
:101CC0000A0000202C08004000080040040000200A
:101CD00080FC0A00486004E0FD484068401CFC4964
:101CE0004860FC484068FC49096889680844F9492B
:101CF00048600846406800281CDDF848007840F03D
:101D00000800F6490870F3484068F249C968401A6B
:101D1000F0494860F148007810F0400F05D0EC48D9
:101D20008068401EEA49886004E0E9488068401CF9
:101D3000E7498860E7488068E7490968C968084456
:101D4000E44988600846806800281CDDE348007884
:101D500040F01000E1490870DE488068DD49C9683C
:101D6000401ADC498860DD48007810F0800F05D00B
:101D7000D748C068401ED649C86004E0D448C0684F
:101D8000401CD349C860D3480069401CD149086150
:101D900008460069D04909680969884277D2CC4869
:101DA000407804281ED1FFF7CCFDE8B3C948C069CC
:101DB000C9490968096B884208D8FFF794FDC448EF
:101DC000807840F00400C24988708CE0C148C06946
:101DD000C1490968096B401ABE49C861C869FFF763
:101DE00004FE80E0BB480069BB490968496B884232
:101DF0001BD2FFF7A6FDB8B1B648C069B64909685D
:101E0000096B0844B349C8610846C069B24909680A
:101E1000C96B884204D3B0480068C06BAD49C86143
:101E2000AC49C869FFF7E1FD5DE0AA480069AA492D
:101E30000968896B884241D3A6480069A6490968A8
:101E4000896B884211D1A348C069A3490968C96B4D
:101E5000884203D1A2489F49886144E09D48806937
:101E6000A049081A9B4988613DE0FFF76AFD20B34D
:101E70009848C0699749096A884209D99548C06954
:101E800095490968096B401A9249C86105E025E047
:101E90009048C06940088F49C8618E48C0698E4922
:101EA0000968C96A884204D28B480068C06A8949B7
:101EB000C8618849C869FFF798FD14E08548C06982
:101EC00085490968C96B88420DD083480068C06B9A
:101ED0008049C861C869FFF788FD04E000207E4999
:101EE000086003F0FAFD8048007E7C49097848408C
:101EF0007A49087000207D4908707D48008820F0EC
:101F000001004FF08041A1F8100400BF8BE50020D4
:101F10007849098811F0010F43D07349097E01F017
:101F2000040038B97449096821F02001734AC2F8E5
:101F30000C1C06E07049096841F020016F4AC2F8A4
:101F40000C1C6949097E01F0080038B96A49096822
:101F500021F04001694AC2F80C1C06E06649096894
:101F600041F04001654AC2F80C1C5F49097E01F04E
:101F7000100038B96049096821F080015F4AC2F851
:101F80000C1C06E05C49096841F080015B4AC2F81C
:101F90000C1C5B49098821F001014FF08042A2F836
:101FA00000185449098821F001014FF08042A2F83D
:101FB0001018704710B52421464804F0F1F84FF48A
:101FC0004870FFF712FD0020434908604749087038
:101FD00010BD10B500244448007E00F004043CB954
:101FE0004548006820F020004449C1F80C0C06E088
:101FF0004148006840F020004049C1F80C0C3A48C4
:10200000007E00F008043CB93B48006820F0400026
:102010003A49C1F80C0C06E03748006840F040002F
:102020003649C1F80C0C3048007E00F010043CB971
:102030003148006820F080003049C1F80C0C06E0FF
:102040002D48006840F080002C49C1F80C0C26484F
:10205000007E00F020043CB92748006820F480701E
:102060002649C1F80C0C06E02348006840F4807053
:102070002249C1F80C0C1C48007E00F040043CB919
:102080001D48006820F400701C49C1F80C0C06E0E3
:102090001948006840F400701849C1F80C0C124847
:1020A000007E00F080043CB91348006820F4806092
:1020B0001249C1F80C0C06E00F48006840F480603B
:1020C0000E49C1F80C0CFFF7E3FBFFF70CFC10BD49
:1020D00018000020BC05002004000020090000209A
:1020E00080FC0A0000F91500E80600200A00002024
:1020F00010040040100800400C0C0140000001409A
:102100000008004000B519484078022804D1032097
:1021100016494870FFF7BCFB00BD144840780328FF
:1021200004D104201149487000200874704710B58C
:102130000F480068B0B10E49096809690D4A126973
:10214000881A03F0D8FF00200A49C861C869FFF760
:102150004CFC0948074988610020086102200349B6
:10216000487002E000200149487010BD18000020AE
:1021700004000020BC05002080FC0A00704770B5F8
:1021800005464B480078401CC4B2402C00D10024C6
:1021900005E04848807810F0100F00D070BD464828
:1021A00000788442F5D04548414909784554404873
:1021B0000470012240F227714148FEF76EFD00BF16
:1021C000ECE74048017840480078884201D1FF2080
:1021D00070473E48425C481CC1B2802900D10021B2
:1021E000384801701046F3E73748007835490870E1
:1021F000704770B540F225513148FEF704FEB8B380
:1022000033480088C5B2182D1BD0212D12D03F2D88
:1022100002D07E2D18D106E02648807840F00100DB
:102220002449887022E02348807840F00200214948
:1022300088701BE01F48807840F008001D498870B6
:1022400014E002F047FB11E01F480078401CC4B2C4
:10225000802C00D100241B480078844205D01B4804
:102260001949097845541848047000BF00BF00BFE1
:1022700040F227711248FEF7D2FDC0B10E48047833
:102280000E48005D1249088004F10100C4B2402CE0
:1022900000D100240848047005480078844205D124
:1022A000002240F227710648FEF7F7FC00BF70BD20
:1022B0000D000020180000200E0000206006002005
:1022C000003801400C0000200B000020E005002039
:1022D00004380140F84890F8280010F0080F07D0A3
:1022E000F648006840F4E070F549C1F8000406E0E3
:1022F000F248006820F4E070F149C1F8000470472A
:1023000010B5F048407806280CD0EE48807810F0E0
:10231000200F07D102F0DEFAEA48807840F0400052
:10232000E8498870E848006840F4E070E449C1F882
:10233000140410BD2DE9FF4F93B0044600200F9008
:1023400010901190129014F0010F12D00F98401CB1
:10235000C0B20F90D849086805F0ECFD0022DB4BB5
:10236000CDE9040104F0C4FFCDE9060105F03EFA11
:10237000109014F0020F12D00F98401CC0B20F90B2
:10238000CD49486805F0D6FD0022D04BCDE90401C7
:1023900004F0AEFFCDE9060105F028FA119014F023
:1023A000040F12D00F98401CC0B20F90C249886829
:1023B00005F0C0FD0022C54BCDE9040104F098FFF3
:1023C000CDE9060105F012FA1290DDE9110188420B
:1023D00001D9119800E012981099884201D2109802
:1023E00006E0DDE91101884201D9119800E0129858
:1023F00083460F9805F03EFACDE9000104F020FF76
:10240000CDE90401584605F035FACDE90201DDE9D0
:10241000042305F027F8CDE9060104F037FF0E90FC
:10242000A548016A0E9805F0B1FFA949029005F090
:102430001BFE039005F07EFDCDE9040104F028FCAD
:10244000CDE9060105F0D2F90C900F9805F012FACB
:10245000CDE9000104F0F4FECDE90401169805F081
:1024600069FDCDE90201DDE9042305F053FACDE968
:10247000060104F00BFF169016990E9805F086FFE2
:1024800001460290934805F0EFFD039005F052FDE0
:1024900000228E4BCDE9040104F02AFFCDE90601AC
:1024A00005F0A4F905468C4EAE4200D92E4682486E
:1024B000007E0D90804890F8290000F0E0000D9912
:1024C00048400D90149818B90D9880F0E0000D90D8
:1024D0004FEA5B00C0F10008C146C2467648407B27
:1024E000301A0B9000200A9042F21070099000BF41
:1024F0000D98089079480068C0F3801047EA4007BB
:102500006F48D0F80808C0F3C01047EA8007734846
:102510000068C0F3002047EAC007159808B187F0AB
:102520000E0714F0010F10D010988044B8F1000F7E
:102530000BDD17F0020F04D0089880F0040008901B
:1025400001E024F00104A8EB0B0814F0020F10D0F6
:1025500011988144B9F1000F0BDD17F0040F04D07E
:10256000089880F00800089001E024F00204A9EB2C
:102570000B0914F0040F10D012988244BAF1000F26
:102580000BDD17F0080F04D0089880F010000890B9
:1025900001E024F00404AAEB0B0A24B14948807836
:1025A00010F0100F02D017B0BDE8F08F002038B146
:1025B0004B48006820F020004149C1F80C0C06E0AF
:1025C0004748006840F020003D49C1F80C0C00204D
:1025D00038B14348006820F040003949C1F80C0C7C
:1025E00006E03F48006840F040003549C1F80C0C57
:1025F000002038B13A48006820F080003049C1F826
:102600000C0C06E03648006840F080002C49C1F808
:102610000C0C002038B13248006820F48070284942
:10262000C1F80C0C06E02E48006840F48070244984
:10263000C1F80C0C002038B12948006820F4007063
:102640001F49C1F80C0C06E02548006840F40070F2
:102650001B49C1F80C0C002038B12148006820F457
:1026600080601749C1F80C0C06E01D48006840F472
:1026700080601349C1F80C0C0F49487B00F044FC02
:10268000002038B11648006820F020000C49C1F83D
:102690000C0C06E01248006840F020000849C1F820
:1026A0000C0C0020F0B10E48006820F040000449F6
:1026B000C1F80C0C1DE00000E806002000040140F9
:1026C0000000014018000020140401400000E03F19
:1026D00000803B45C0E1644CF8240100080801403B
:1026E0000C0C01405948006840F040005849C1F8BE
:1026F0000C0C002038B15548006820F08000544987
:10270000C1F80C0C06E05148006840F080005049C8
:10271000C1F80C0C002038B14C48006820F48070DF
:102720004B49C1F80C0C06E04848006840F4807042
:102730004749C1F80C0C002038B14448006820F427
:1027400000704349C1F80C0C06E04048006840F4B2
:1027500000703F49C1F80C0C002038B13B480068BC
:1027600020F480603A49C1F80C0C06E03748006854
:1027700040F480603649C1F80C0C002038B1334871
:10278000006820F400603249C1F80C0C06E02F48C4
:10279000006840F400602E49C1F80C0C0B9800F062
:1027A000B3FBAE427FF6A4AE09983044099044F6DC
:1027B000206109988842F5D90998401A09900C9926
:1027C0000A9808440A9023490A98B1FBF0F6AE42F1
:1027D00000D22E462048407B301A0B9088E610B578
:1027E000FFF756F81C4800220121036B0420FFF775
:1027F000A1FD194800220121036B0320FFF79AFD78
:102800001549888E00F074FB022417E0124801225B
:102810000021C36A0720FFF78DFD0F49888E00F065
:1028200067FB002C0ADD0C4800220121C36A072047
:10283000FFF780FD0849888E00F05AFB2000A4F1C4
:1028400001014CB2E2D1FFF74EF810BD0C0C014073
:102850000000014000879303E80600200020FC49A7
:102860000870FC490870704710B5FFF7F7FF00F0DB
:1028700076FC10BD70B5002416E0F749204601F043
:10288000C4FB18B90A2000F0DBFB0BE0F24800782B
:1028900040B1F14801F062FAEF4802F0D2F8054683
:1028A00000F0CEFB601CC4B2022CE6DB70BD10B59C
:1028B0000A2000F01DFBE948006810F0010F01D16B
:1028C00002F008F80120E649086010BD10B50A20A2
:1028D00000F00EFBE1480068C0F3400028B9E14871
:1028E000807840F00800DF4988700220DC490860E9
:1028F00010BD10B50A2000F0FBFAD8480068C0F3FC
:10290000800028B9D748807840F00200D549887007
:102910000420D349086010BD10B5D2488078E8B3D0
:10292000D048847814F0600F22D00620CD4948703A
:1029300014F0400F12D0C01F00F0D0FB012000F0B7
:10294000E9FBC848807820F01000C649887000BFB5
:10295000C448807810F0100FFAD003E06FF0010047
:1029600000F0BCFBBF48807820F06000BD49887053
:1029700014F0100F03D00120BA49087010BD14F0F4
:10298000010F07D001F048F8B648807820F0010028
:10299000B449887014F0080F09D000E026E0FFF772
:1029A000BCFBB048807820F00800AE49887014F075
:1029B000040F07D0FFF7BBFBAA48807820F0040083
:1029C000A849887014F0020F10D0FFF79BFBA648AF
:1029D00090F8280010F0020F02D00120A1490874DD
:1029E000A048807820F002009E49887000BFC5E7AB
:1029F000FEB50446012002900025207824287ED1CF
:102A00009DF80800205C47282AD007DC68B12328FD
:102A10001AD024280CD0432872D12DE048285ED04B
:102A20004E287AD058286BD145E000F09DFBDDE0C0
:102A30009DF80800401CC0B20290205C08B1032041
:102A4000FEBD00F096FBD1E09DF80800401CC0B22E
:102A50000290205C08B10320F2E700F058FEC5E0C8
:102A60009DF80800401CC0B20290205C08B1032011
:102A7000E6E700F0F4FEB9E09DF80800401CC0B2A3
:102A80000290205C08B10320DAE7764840780728F6
:102A900005D101F01FFF052000F03CFB0AE0714862
:102AA000407808B10B20CBE707206E49487004201E
:102AB00000F030FB9AE09DF80800401CC0B2029084
:102AC000205C08B10320BBE766484078062805D1A2
:102AD000032000F01FFB00206249487086E0624836
:102AE00090F8280010F0100F14D05E48407818B10C
:102AF0005C48407806280BD101F070FE02E078E0D7
:102B000028E00AE05748007830B9FFF7B3FE03E049
:102B10000B2095E7072093E768E09DF80800401C2C
:102B2000C0B20290205C98B900250EE021462846EC
:102B300001F06BFA18B90A2000F082FA03E021468E
:102B4000284600F054FF681CC5B2022DEEDB4DE0B4
:102B5000012500BF01AA02A9204600F029F908B901
:102B600001206DE79DF80810481CC0B20290605C1F
:102B70003D2801D0032063E70DB39DF8085000BF46
:102B80009DF80800205C9DF80810491B60549DF8D2
:102B90000810481CC0B20290605C0028F0D12046AA
:102BA00001F04FFF05460DB1284649E7019805F0B1
:102BB0006DFBC5B22146284601F0C4F915E06A460E
:102BC00002A9204600F0F4F808B9012038E79DF882
:102BD0000800205C08B1032032E7019805F03AFBB9
:102BE0000646009901F067FA2AE700BF00BF0020FF
:102BF00026E7204601F025FF22E770B562E00A2CA7
:102C000001D00D2C1AD1FFF787FE1648007800B1CD
:102C100070BD0F48007800280ADD00210E480C4ADC
:102C200012788154FFF7E4FE054600F009FA02E04D
:102C3000002000F005FAFFF711FE43E00548007898
:102C4000A0B1292C3ED10020024908703AE00000D2
:102C50000F00002010000020A006002008080140FE
:102C60001404014018000020E8060020202C29DD73
:102C70002F2C27D0282C03D101201649087021E0E1
:102C800015480078452805DB0D2000F0D9F9FFF73D
:102C9000E5FD17E0612C0DDB7A2C0BDCA4F12000A4
:102CA000C1B20D4802780078401C0B4B18700B48DD
:102CB000815407E0084801780078401C064A1070EB
:102CC00006484454FFF77DFA0446FF2897D100BF19
:102CD0009EE70000100000200F000020A00600204A
:102CE0001A48006820F400601949C1F80C087047C0
:102CF00000B5002017490870FFF7F2FF00BD10B5BE
:102D000004461448007884421FD002F00CFFC4B17E
:102D1000002C07DD0D48006820F480500C49C1F8F4
:102D20000C0806E00948006840F480500849C1F8E2
:102D30000C080648006840F400600549C1F80C081A
:102D400001E0FFF7CDFF03490C7010BD0C080140F6
:102D500000000140110000201248006820F001002E
:102D60001149C1F80C0C704700B500200F490870DC
:102D7000FFF7F2FF00BD10B504460C48007884420E
:102D80000FD002F0D0FE012C07D10648006840F0B9
:102D900001000549C1F80C0C01E0FFF7DDFF034815
:102DA000047010BD0C0C0140000001401200002016
:102DB0002DE9F04F87B080468946924699F8000089
:102DC00000EB08040020069005900025834604903F
:102DD00014F8016B2D2E04D10120069014F8016B1C
:102DE00003E02B2E01D114F8016B25E0A6F1300091
:102DF000C6B2092E16DC0BF1010000F0FF0BBBF18F
:102E0000080F0ADC049808B1681E45B2059800EB6B
:102E1000800006EB400005900CE0049850B9681C57
:102E200045B207E0FE2E04D1049810B901200490A9
:102E300000E002E014F8016BD8E700BFBBF1000F1F
:102E400003D1002007B0BDE8F08F059805F056FAD1
:102E500007460021384605F0C9F939D00FE0384659
:102E600005F068F8404A414BCDE9000104F052FDFD
:102E7000CDE9020104F00AFA0746A81C45B215F193
:102E8000020FECDD002D0EDA384605F053F8384A13
:102E9000384BCDE9000104F03DFDCDE9020104F01D
:102EA000F5F9074614E0002D12DD00BF384605F0A5
:102EB00041F80022304BCDE9000104F02BFDCDE9B3
:102EC000020104F0E3F90746681E40B2051EEDDC7E
:102ED000069820B187F00040CAF8000001E0CAF867
:102EE0000070A4EB0800401E89F800000120A9E74B
:102EF00010B5044602E00120FEF75BF92000A4F1C2
:102F000001018CB2F7D110BD10B504461AE00A2CAD
:102F100004D20120FEF732F9641E13E0642C04D2BF
:102F20000A20FEF72BF90A3C0CE0B4F57A7F04D2B4
:102F30006420FEF723F9643C04E00120FEF739F930
:102F4000A4F57A74002CE2D110BD10B50B4BDA68F1
:102F50009968586803F0CAF8084BDA6899685868A5
:102F600001F005FD10BD00007B14AE47E17A843FFF
:102F70009A9999999999B93F000024401800002026
:102F800070B50446FDF750FC2046FEF74DFB0546A4
:102F9000FDF74EFC284670BD70B504460D46FDF7A2
:102FA00043FC29462046FEF75CFBFDF741FC70BD63
:102FB0002DE9F04107460C461646002511E0680051
:102FC00001D1E81101D0012000E00020C5B2207835
:102FD0002844C5B214F8011B38467F1CFFF7DCFFFC
:102FE000761E002EEBD129463846FFF7D5FFBDE807
:102FF000F0812DE9F04106460F469046002512E08B
:1030000038467F1CFFF7BCFF0446680001D1E81179
:1030100001D0012000E00020C5B22819C5B206F891
:10302000014BA8F10108B8F1000FE9D13846FFF7CC
:10303000A7FFA84202D10120BDE8F0810020FBE7F4
:1030400010B504461CB99FA000F093FE45E09FA078
:1030500000F08FFE0E2C3CD2DFE804F03B070B0F94
:1030600013171B1F23272B2F33379AA000F081FE45
:103070002FE09DA000F07DFE2BE0A1A000F079FEE6
:1030800027E0A5A000F075FE23E0A7A000F071FEE8
:103090001FE0ABA000F06DFE1BE0AEA000F069FEEB
:1030A00017E0B1A000F065FE13E0B2A000F061FEF1
:1030B0000FE0B4A000F05DFE0BE0BBA000F059FEF5
:1030C00007E0BDA000F055FE03E0BEA000F051FEF9
:1030D00000BF00BFBFA000F04CFE10BD10B50446FD
:1030E000BDA000F046FE14F1020F06D0B4F1FF3F80
:1030F00007D1BBA000F03DFE03E0BCA000F039FE0C
:1031000000BF00BFBEA000F034FE4FF4FA70FFF71E
:10311000EFFE10BD10B50446BCA000F02AFE062C40
:1031200018D2DFE804F01703070B0F13B8A000F064
:1031300020FE0FE0BBA000F01CFE0BE0BEA000F0E4
:1031400018FE07E0C1A000F014FE03E0C1A000F0EB
:1031500010FE00BF00BFC2A000F00BFE10BD10B5F6
:10316000C0A000F006FE10BD10B5C64800F001FE7C
:1031700010BD10B5C4A000F0FCFDC449086800F003
:1031800051FEC3A000F0F5FDC049486800F04AFEBA
:10319000C4A000F0EEFDBD49886800F043FEC6A063
:1031A00000F0E7FDB949487B00F030FEC7A000F011
:1031B000E0FDB649086900F035FECBA000F0D9FD6E
:1031C000B249486900F02EFECFA000F0D2FDAF4911
:1031D000087E00F01BFED4A000F0CBFDAB49087EBA
:1031E00000F0D4FDD8A000F0C4FDA84991F83C003F
:1031F00000F00CFED6A000F0BCFDA449086ADC4932
:1032000004F032FF044600F00DFEDAA000F0B1FD3C
:103210009E49486A00F006FEDEA000F0AAFD9B4928
:10322000C86900F0FFFDE3A000F0A3FD974991F805
:103230003E0000F0EBFDE6A000F09BFD934991F805
:103240003D0000F0E3FDEAA000F093FD8F4991F806
:10325000281001F0010000F0D9FDECA000F089FD7C
:103260008A4991F82810C1F3400000F0CFFDEFA08B
:1032700000F07FFD854991F82810C1F3800000F02F
:10328000C5FDF1A000F075FD804991F82810C1F34B
:10329000C00000F0BBFDF5A000F06BFD7B4991F88C
:1032A0002810C1F3001000F0B1FDF7A000F061FD9F
:1032B000764991F8290000F0A9FDFAA000F059FD27
:1032C00000E200006F6B0D0A000000006572726F73
:1032D000723A2000426164206E756D6265722066EC
:1032E0006F726D6174000000457870656374656489
:1032F00020636F6D6D616E64206C6574746572001F
:10330000556E737570706F72746564207374617438
:10331000656D656E74000000496E76616C696420AD
:1033200072616469757300004D6F64616C2067722F
:103330006F75702076696F6C6174696F6E00000044
:10334000496E76616C69642073746174656D656E35
:103350007400000053657474696E6720646973615A
:10336000626C65640000000056616C7565203C204D
:10337000302E300056616C7565203C20332075730B
:1033800065630000454550524F4D207265616420D1
:103390006661696C2E205573696E6720646566618D
:1033A000756C74730000000042757379206F722091
:1033B0007175657565640000416C61726D206C6F9C
:1033C000636B00004C696E65206F766572666C6F8A
:1033D000770000000D0A0000414C41524D3A200098
:1033E00048617264206C696D6974000041626F729B
:1033F0007420647572696E67206379636C65000080
:103400002E204D506F733F0D0A0000005B0000003E
:10341000526573657420746F20636F6E74696E7586
:1034200065000000272448277C2724582720746F34
:1034300020756E6C6F636B0043617574696F6E3AD3
:1034400020556E6C6F636B6564000000456E6162B1
:103450006C65640044697361626C6564000000001F
:103460005D0D0A000D0A4772626C20302E38632011
:103470005B27242720666F722068656C705D0D0ADB
:10348000000000009C87000824303D00E806002072
:103490002028782C20737465702F6D6D290D0A24F7
:1034A000313D00002028792C20737465702F6D6DDC
:1034B000290D0A24323D000020287A2C20737465DF
:1034C000702F6D6D290D0A24333D00002028737480
:1034D00065702070756C73652C2075736563290D9C
:1034E0000A24343D00000000202864656661756C84
:1034F0007420666565642C206D6D2F6D696E290DD5
:103500000A24353D00000000202864656661756C62
:1035100074207365656B2C206D6D2F6D696E290DA0
:103520000A24363D00000000202873746570207066
:103530006F727420696E76657274206D61736B2C86
:1035400020696E743A000000290D0A24373D0000FE
:103550002028737465702069646C652064656C61F3
:10356000792C206D736563290D0A24383D00000015
:10357000000061452028616363656C657261746950
:103580006F6E2C206D6D2F7365635E32290D0A24DA
:10359000393D000020286A756E6374696F6E20647F
:1035A0006576696174696F6E2C206D6D290D0A2432
:1035B00031303D0020286172632C206D6D2F7365C2
:1035C000676D656E74290D0A2431313D00000000DD
:1035D00020286E2D61726320636F72726563746957
:1035E0006F6E2C20696E74290D0A2431323D000063
:1035F00020286E2D646563696D616C732C20696E83
:1036000074290D0A2431333D000000002028726522
:10361000706F727420696E636865732C20626F6FBF
:103620006C290D0A2431343D00000000202861750A
:10363000746F2073746172742C20626F6F6C290D2B
:103640000A2431353D0000002028696E76657274C9
:10365000207374657020656E61626C652C20626FEA
:103660006F6C290D0A2431363D0000002028686166
:103670007264206C696D6974732C20626F6F6C29A1
:103680000D0A2431373D00002028686F6D696E6790
:10369000206379636C652C20626F6F6C290D0A249E
:1036A00031383D002028686F6D696E67206469724B
:1036B00020696E76657274206D61736B2C20696E63
:1036C000743A0000F04991F8290000F05FFBEFA088
:1036D00000F04FFBEC49C86A00F0A4FBEDA000F03D
:1036E00048FBE949086B00F09DFBF2A000F041FBAC
:1036F000E549888E00F08AFBF6A000F03AFBE2492B
:10370000886B00F08FFBFBA000F033FB10BD2DE9B0
:10371000FE4F4FF0000969E06946484600F08FFC13
:1037200020B90A20FFF78CFCBDE8FE8FF8A000F05E
:1037300020FBB9F1080F25D2DFE809F004080C10CE
:1037400014181C20F3A000F014FB1BE0F2A000F002
:1037500010FB17E0F1A000F00CFB13E0F0A000F06C
:1037600008FB0FE0EFA000F004FB0BE0EEA000F080
:1037700000FB07E0EDA000F0FCFA03E0ECA000F095
:10378000F8FA00BF00BF4FF0000828E0BE4890F8EC
:10379000280010F0010F0FD05DF8280004F0CAFBDC
:1037A0000646E44AE44B04F0B5F8044603F06EFD27
:1037B000824600F037FB03E05DF8280000F032FBA2
:1037C000B8F1020F03DADDA000F0D3FA03E0AFF2A4
:1037D000703000F0CEFA08F1010000F0FF08B8F1F7
:1037E000030FD3DB09F1010000F0FF09B9F1070F66
:1037F00092DDD3A000F0BDFA4FF000082AE0A24805
:1038000090F8280010F0010F10D0CF4951F828008F
:1038100004F090FB0446C74AC74B04F07BF8064609
:1038200003F034FD824600F0FDFA04E0C64951F889
:10383000280000F0F7FAB8F1020F03DABFA000F099
:1038400098FA03E0AFF2E83000F093FA08F10100D3
:1038500000F0FF08B8F1030FD1DB00BF64E72DE9EA
:10386000F041B9482C384078052818D2DFE800F03C
:1038700003070B0F1300B5A000F07BFA0FE0B4A014
:1038800000F077FA0BE0B3A000F073FA07E0B2A003
:1038900000F06FFA03E0B1A000F06BFA00BF00BFC8
:1038A000B0A000F066FAA8492C39097F01F1360072
:1038B00000F0ACFAA4482C38407E60B9A2482C38FD
:1038C000807E012803D1A8A000F053FA06E0A8A04A
:1038D00000F04FFA02E0A8A000F04BFA9A482C380A
:1038E000C07818B1A6A000F044FA02E0A6A000F04B
:1038F00040FA95482C38007918B1A5A000F039FAA3
:1039000002E0A5A000F035FA8F482C38807818B175
:10391000A3A000F02EFA02E0A3A000F02AFA8A4841
:103920002C38407920B1012806D002280CD107E0BC
:103930009FA000F01EFA07E09EA000F01AFA03E034
:103940009DA000F016FA00BF00BF7F482C3890F908
:103950000600B0F1FF3F06D048B101280BD197A077
:1039600000F007FA07E096A000F003FA03E095A044
:1039700000F0FFF900BF00BF73482C38C07910B1C8
:10398000012808D103E090A000F0F3F903E08FA034
:1039900000F0EFF900BF00BF8DA000F0EAF96A491E
:1039A0002C39087E00F032FA8AA000F0E2F966486D
:1039B0002C38C07880B164492C39886804F0BAFA90
:1039C00004465C4A5C4B03F0A5FF064603F05EFC30
:1039D000804600F027FA04E05B492C39886800F043
:1039E00021FAAFF2845000F0C4F9BDE8F08170B55F
:1039F00005460C4678A000F0BCF9284600F006FA0F
:103A0000AFF2984000F0B5F9204600F0A7F9AFF208
:103A10003C6000F0AEF970BD2DE9F04F89B06F4AFF
:103A2000D2E90110D268CDE9060205916B484078D1
:103A3000082821D2DFE800F00420080C1014181C1C
:103A400067A000F096F917E067A000F092F913E084
:103A500067A000F08EF90FE067A000F08AF90BE094
:103A600067A000F086F907E067A000F082F903E0A4
:103A700067A000F07EF900BF00BF67A000F079F9F1
:103A80004FF00008FDE00000E8060020290D0A24A0
:103A900031393D002028686F6D696E672066656565
:103AA000642C206D6D2F6D696E290D0A2432303D16
:103AB000000000002028686F6D696E6720736565DF
:103AC0006B2C206D6D2F6D696E290D0A2432313DEE
:103AD000000000002028686F6D696E6720646562D1
:103AE0006F756E63652C206D736563290D0A243232
:103AF000323D00002028686F6D696E672070756C1C
:103B00006C2D6F66662C206D6D290D0A000000007B
:103B10005B47000035343A0035353A0035363A0017
:103B200035373A0035383A0035393A0032383A00FC
:103B300033303A006568E1575128A43F2C0000005B
:103B40005B4739323A000000540700205B473000E1
:103B50005B4731005B4732005B4733005B473830DF
:103B6000000000002047000020473137000000001F
:103B700020473138000000002047313900000000A4
:103B800020473230000000002047323100000000A2
:103B90002047393000000000204739310000000084
:103BA000204739330000000020473934000000006E
:103BB000204D3000204D3100204D3200204D33008B
:103BC000204D3400204D3500204D3900204D380067
:103BD0002054000020460000244E00001800002061
:103BE0003C49646C650000003C51756575650000DA
:103BF0003C52756E000000003C486F6C6400000091
:103C00003C486F6D650000003C416C61726D0000C6
:103C10003C436865636B00002C4D506F733A0000A5
:103C200005A951F8280004F051FB0446444850F817
:103C30002810204604F018FA02A941F8280040484C
:103C400090F8280010F0010F0ED051F8280004F071
:103C500071F906463B4A3C4B03F05CFE044603F018
:103C600015FB02A941F8280002A951F8280000F02C
:103C7000D9F8AFF2381000F07CF808F1010000F03C
:103C8000FF08B8F1020FCBDD30A000F072F84FF062
:103C900000084BE02A4890F8280010F0010F23D0CC
:103CA0002C4A52F828100C3A52F8280004F06EF909
:103CB000834604F03FF90446224A234B03F02AFED0
:103CC00081468A4602A951F8280004F033F94A4691
:103CD0005346CDE9000104F043F8064603F0D6FA56
:103CE00002A941F8280011E01A4A52F828100C3AAB
:103CF00052F8280004F04AF9044602A850F82810A7
:103D0000204604F047FC02A941F8280002A951F816
:103D1000280000F087F8B8F1020F03DAAFF2E410E0
:103D200000F027F808F1010000F0FF08B8F1020FD9
:103D3000B0DD09A000F01DF809B0BDE8F08F00006B
:103D4000E80600206568E1575128A43F57506F737B
:103D50003A000000540700203E0D0A0010B504464A
:103D600003E014F8010BFEF70AFA20780028F8D1D6
:103D700010BD70B50446002504E0665D3046FEF7D0
:103D8000FEF96D1C605D0028F7D170BD7CB505465D
:103D9000002406E005F001000DF804006D10601C21
:103DA000C4B2082CF6DB08E0611E1DF801103031AA
:103DB000C8B2FEF7E4F9601EC4B2002CF4DC7CBD8E
:103DC0003EB5044600251CB93020FEF7D8F93EBDAB
:103DD0000EE00A20B4FBF0F100FB11403030C2B21B
:103DE0002846691CCDB20DF800200A20B4FBF0F47F
:103DF000002CEED106E0691E1DF80100FEF7BFF9A8
:103E0000681EC5B2002DF6DC00BFE0E710B5044621
:103E1000002C03DA2D20FEF7B2F964422046FFF7AA
:103E2000CFFF10BD2DE9FE4F83460021584604F018
:103E300079FA04D22D20FEF7A2F98BF0004B3D4811
:103E400090F83DA008E03C49584604F09FFA8346AC
:103E5000AAF1020000F0FF0ABAF1020FF3DABAF198
:103E6000000F04D03549584604F090FA834658466E
:103E700004F060F806460022314B03F039FA04469C
:103E800003F004FA83464FF00008584604F0E2F9C4
:103E900081462E20274991F83D100DF8010018E0C9
:103EA000244890F83D00404503D108F1010000F09E
:103EB000FF080A20B9FBF0F100FB11903030C2B2CC
:103EC0004046411C01F0FF080DF800200A20B9FB14
:103ED000F0F9B9F1000FE3D106E030224046411C71
:103EE00001F0FF080DF80020124890F83D00404511
:103EF000F3DC104890F83D0040450AD108F101007C
:103F000000F0FF0830224046411C01F0FF080DF888
:103F1000002009E0A8F101011DF80100FEF72FF9CA
:103F2000A8F1010000F0FF08B8F1000FF2DCBDE8D5
:103F3000FE8F0000E80600200000C842000020417B
:103F40000000E03F70B504460D46C4EBC40000EB32
:103F5000841000F5407086B2462229463046FFF7AD
:103F600027F870BD70B504460D4604EB840000EBE5
:103F7000C40000F500760C2229463046FFF718F8F9
:103F800070BD10B505210020FFF706F84022EE496C
:103F90000120FFF70DF810BD10B5044694B1EB48B1
:103FA000E9490860486088600A204873E74808616A
:103FB000E7484861E7480862E748C861C0200876DA
:103FC000E64848620020E04981F82800084690F859
:103FD000280040F0020081F82800002081F8290024
:103FE000DF48C862D9480863642088864FF07E5055
:103FF0008863192081F83C00032081F83D001920D6
:1040000081F83E00FFF7BDFF10BD70B505460C46B8
:10401000C5EBC50000EB851000F5407086B2462266
:1040200031462046FEF7E5FF38B9002020702146D2
:104030002846FFF787FF002070BD0120FCE770B520
:1040400005460C4605EB850000EBC50000F5007643
:104050000C2231462046FEF7CCFF48B900202060F4
:104060006060A06021462846FFF77CFF002070BDFD
:104070000120FCE710B50020FEF782FF0446052C66
:1040800007D140220121B048FEF7B3FF88B90020D4
:1040900010BD042C0BDC28220121AB48FEF7A9FF40
:1040A00008B90020F4E70020FFF776FF01E00020C8
:1040B000EEE70120ECE72DE9F04707460E46172F03
:1040C00077D2DFE807F00C0D0E1E3336393F4E591C
:1040D000646777869DB4CBE4F6F5F4F3F20000BF95
:1040E00000BF304603F026FF04460022134603F0CB
:1040F000D5FB02D80820BDE8F087934840F8276038
:1041000001E19849304604F00DF901D20920F2E7A7
:10411000304603F00FFF80460022934B03F0E8F88F
:10412000044603F063FB88494873ECE08648066167
:10413000E9E085484661E6E0304604F0A7F88249A8
:104140000876E0E0304603F0F5FE04460022864B98
:1041500003F0CEF8804603F049FB7B4981F83C0030
:10416000D1E08249304604F011F904467F4904F059
:104170000DF975490862C6E0304603F0DBFE21F018
:104180000041044603F082F86F494862BBE06E4884
:10419000C661B8E0304603F0CDFE04460022724B03
:1041A00003F0A6F8804603F021FB674981F83E0042
:1041B000A9E0A6E0304603F0BDFE044600226A4BAB
:1041C00003F096F8804603F011FB5F4981F83D004B
:1041D00099E00021304604F009F808D05A4890F8D8
:1041E000280040F00100584981F8280007E05648AF
:1041F00090F8280020F00100534981F8280082E05F
:104200000021304603F0F2FF08D04F4890F8280014
:1042100040F002004C4981F8280007E04A4890F835
:10422000280020F00200484981F828006BE00021B6
:10423000304603F0DBFF08D0434890F8280040F0F8
:104240000400414981F8280007E03F4890F8280021
:1042500020F004003C4981F8280054E00021304659
:1042600003F0C4FF08D0384890F8280040F0080058
:10427000354981F8280007E0334890F8280020F0FD
:104280000800314981F82800FEF724F83BE00021BE
:10429000304603F0ABFF0DD02B4890F8280040F0DB
:1042A0001000294981F828000CE027E018E014E00C
:1042B00010E008E0244890F8280020F0100022497F
:1042C00081F828001FE0304603F0E0FF1E4981F826
:1042D000290018E01C48C66215E01B48066312E07E
:1042E000304603F027FE044600221F4B03F000F87F
:1042F000804603F07BFA1449888604E012488663FE
:1043000001E00620F7E600BFFFF73BFE0020F2E6E3
:104310003EB5FFF7AFFE38B90A20FEF791FE012047
:10432000FFF73AFEFEF725FF002409E06946204624
:10433000FFF785FE10B90A20FEF782FE601CC4B2AA
:10434000072CF3DD3EBD0000E806002000007A43A4
:104350000000FA4300A00C47CDCCCC3DCDCC4C3D69
:104360000000C841000040400000E03F00007042F3
:104370002DE9F84304460D4616461F46DDF8208019
:10438000FF484078072801D1BDE8F88300BFFEF759
:10439000C3FAFB48007800B1F6E701F0BAFB002849
:1043A000F5D13B46324629462046CDF8008001F043
:1043B000CCFBF348407810B90220F1494870F0482E
:1043C000007C08B1FDF79EFE00BFDDE72DE9FF4F41
:1043D0009FB081460E4614461D46DDE92C7854F800
:1043E000251059F8250003F0D1FD1D9054F8271031
:1043F00059F8270003F0CAFD1C9059F8281056F808
:10440000280004F0D1F81B9054F8250080F00040FB
:104410001A9054F8270080F00040199056F82500B3
:104420001D9904F0C1F8189056F827001C9904F063
:10443000BBF817901799199803F0A8FF02901899E4
:104440001A9803F0A3FF0190029903F09FFD0390D7
:1044500003F070FDCDE90601DDE9181003F096FFC9
:10446000029017991A9803F091FF0190029904F0B5
:104470009BF8039003F05EFDCDE90401DDE906231E
:1044800002F046FBCDE9080102F000FF1690002083
:104490000C90319898B10021169804F04AF821D870
:1044A000169803F047FDB74AB74BCDE9060103F074
:1044B00057FCCDE9080102F0E9FE169012E0002158
:1044C000169803F02FFF0DD8169803F033FDAD4A70
:1044D000AD4BCDE9060102F00BFFCDE9080102F07A
:1044E000D5FE16901B9803F025FD21F00041CDE983
:1044F00006013099169803F049FF039003F01AFD66
:10450000CDE90401DDE9062302F0F4FCCDE9080160
:1045100002F0BCFE1590159803F00CFD0022134626
:10452000CDE9080103F0F6F802D123B0BDE8F08F21
:104530009648C169159803F097FD059003F0FAFCC1
:10454000CDE9060102F068FCCDE9080103F04EF95F
:1045500080B214902F9838B1149803F0CFFE0990D0
:104560002E9903F013FF2E90149803F0C7FE014616
:104570000990169803F078FD8246149803F0BEFE69
:10458000014609901B9803F06FFD1390504603F00D
:10459000D1FCCDE90401504603F0CCFC00227C4B59
:1045A000CDE9000103F0B6F9CDE90201DDE904230C
:1045B00003F0B0F90022774BCDE9060103F0DEFAF3
:1045C000CDE9080102F062FE0B90CDF828A059F861
:1045D000280010A941F828004FF0010B9BE06B4820
:1045E00090F83E100C98814222DD0B99199803F047
:1045F000CDFE09900A991A9803F0C8FE089009990F
:1046000003F0C4FC0D900A99199803F0BFFE0990BD
:104610000B991A9803F0BAFE0890099903F0C4FFA9
:104620001A900D9819900C98401C40B20C904DE0D7
:10463000584603F063FE5146049003F0A7FE059030
:1046400003F078FCCDE9060102F090FBCDE908010A
:1046500002F01CFE0E90584603F050FE51460490A6
:1046600003F094FE059003F065FCCDE9060102F02D
:104670008FFDCDE9080102F009FE0F9054F82700E4
:104680000F9903F083FE099054F8250080F0004054
:1046900007900E9903F07AFE0890099903F076FCD2
:1046A0001A9054F827000E9903F070FE099054F800
:1046B000250080F0004007900F9903F067FE0890F6
:1046C000099903F071FF199000200C901A991D9818
:1046D00003F05CFC10A941F8250019991C9803F01F
:1046E00055FC10A941F8270051F82800139903F050
:1046F0004DFC10A941F828002F9B00932E9B10A879
:1047000007C8FFF735FE1E48007800B10DE70BF132
:1047100001001FFA80FB14988345FFF660AF2F9BC2
:10472000009396E807002E9BFFF722FE00BFFCE6F1
:104730002DE9FC5F81461849484603F027FE824672
:1047400003F0F8FB064602F067FB044603F04EF860
:104750001FFA80F801F0E7F9322108FB01F003F0BD
:10476000B5FD0E490190484603F010FE00900199F6
:1047700003F01AFF834603F0DDFB064610E000005D
:1047800018000020182D4454FB211940E806002091
:104790000000E03F0000F03F0000A04100007A442C
:1047A00002F03AFB044603F021F81FFA80FA504663
:1047B000FEF79EFB09E0FEF7AFF85948007808B114
:1047C000BDE8FC9F3220FCF7F4FCB8F10000A8F132
:1047D00001011FFA81F8EEDC00BFF1E72DE9F84F87
:1047E00005204F4948704F48006820F4E0704E495A
:1047F000C1F80004FDF7F3FFFEF78EF84848007893
:1048000008B1BDE8F88F4648002141608160C16071
:10481000FEF79BFB002042494870002426462546AF
:10482000424890F8290010F0200F01D0012401E047
:104830004FF0FF343D4890F8290010F0400F01D0B0
:10484000012501E04FF0FF35384890F8290010F0BD
:10485000800F01D0012601E04FF0FF36304603F013
:1048600035FD82463148816B504603F08FFD074687
:10487000284603F02BFD82462C48816B504603F0FE
:1048800085FD8046204603F021FD82462748816B46
:10489000504603F07BFD81460023244800933A46AE
:1048A0004146036B4846FFF763FDFDF72BFC01F023
:1048B0003AF9FEF74AFB1D4890F8280010F0080F5F
:1048C00006D01848006840F4E0701749C1F80004A9
:1048D00000BF96E710B51248807810F0100F1ED177
:1048E0000F48807840F010000D498870FEF7F8F905
:1048F000FEF732FA0A484078032804D0042803D08F
:1049000005280BD101E000BF00BF0548807840F0CA
:10491000200003498870FCF7E6FF00BF00BF10BD10
:10492000180000200004014000000140E8060020BB
:10493000FA4B58769976DA76704710B53821F748F1
:1049400001F02EFCF6480069F4498860022201213A
:104950000020FFF7EDFF0120F0490871087F2031AA
:10496000FFF76DFB10B90A20FEF76AFB10BD2DE9B9
:10497000F04106460C461546304603F0A7FC0746B4
:10498000E7480168384603F06FFBE449C8602046F9
:1049900003F09CFC0746E2484168384603F064FB9C
:1049A000DE490861284603F091FC0746DC4881682F
:1049B000384603F059FBD9494861BDE8F0812DE93B
:1049C000F0418046D548C07848B1404603F0B2FA7D
:1049D00006464FF06632D34B02F09CFF02E04046A1
:1049E00003F0A8FA044602F051FCBDE8F0812DE97D
:1049F000F04105460F4616461C462078305C10B93B
:104A00000020BDE8F0812078305C287028784128AB
:104A100002DB28785A2804DD0220C04908700020F3
:104A2000EFE72078401C20703A4621463046FEF7DA
:104A3000BFF920B90120B94908700020E1E7012041
:104A4000DFE701B5A6B00020249020901F90B64863
:104A50001E9000201D901C90149013901290B3484B
:104A60004078062802D10C2027B000BD0020199004
:104A70001A901B90169017901890A84908701590DE
:104A8000B5E1229803F0E6FB21909DF88C004728C1
:104A900002D04D2878D130E12198352834D01BDC64
:104AA00011283CD009DC0B2852D2DFE800F031326B
:104AB00033342951515151512A0015283DD006DC7B
:104AC00012282DD013282CD0142841D134E01C28D2
:104AD00018D01E283CD116E050281DD008DCA0F1CB
:104AE0003600062834D2DFE800F02B2C2D2E2F3094
:104AF0005A3805282CD2DFE800F01718081B1C00D4
:104B000000BF00BF00BF00BF00BF012015901FE025
:104B100000BF00BF00BF00BF0220159018E000BF1B
:104B200000BF0320159013E000BF042015900FE094
:104B300000BF062015900BE000BF0720159007E08E
:104B400000BF00BF00BF00BF00BF0920159000BF1D
:104B500000BF2198352877D01CDC112844D009DC0F
:104B60000B2872D2DFE800F02A2E32363AC3C3C3D4
:104B7000C3C33D0015284DD007DC12283AD01328B6
:104B80003ED0142861D141E019E11C2846D01E28EE
:104B90005BD144E0502879D008DCA0F1360006282B
:104BA00053D2DFE800F068696A6B6C6D5A380528EB
:104BB0004BD2DFE800F06F737794980000205749DC
:104BC000487098E001205549487094E0022053490C
:104BD000487090E00320514948708CE001201C90FF
:104BE00089E002201C9086E0022201210020FFF7CC
:104BF0009FFE80E0012200210220FFF799FE7AE06B
:104C0000002202210120FFF793FE74E001204349B6
:104C1000C87070E000204149C8706CE000BF444893
:104C2000229903F0B3FB0B9003F014FB2190219821
:104C3000B0F58C7F0AD0A0F58070193809D0132800
:104C40000AD014280ED10AE012E050E003201C9094
:104C50000CE004201C9009E005201C9006E00620D2
:104C60001C9003E003202D49087000BF00BF42E004
:104C700001201D903FE000BF00BF00BF00BF00BF8C
:104C8000219836382549087735E0FFE70420234985
:104C9000487030E00120214908712CE000201F49B4
:104CA000087128E02248229903F070FB0B9003F072
:104CB000D1FA21902198B0F5667F04D0A0F540701C
:104CC000993806D102E007201C9006E008201C90CD
:104CD00003E003201149087000BF00BF0BE0012072
:104CE0000E49887007E000200C49887003E003201B
:104CF0000A49087000BF00BF61E0219803281FD057
:104D000005DCB8B1012816D002281ED114E0042811
:104D100017D0052816D01E2817D10EE0280700202E
:104D2000E806002066663940000080BF18000020B9
:104D30000000204100BF00BF00BF0520159004E027
:104D400000BF00BF0820159000BF00BF21980428B5
:104D50001FD007DC78B1012811D0022810D0032819
:104D600027D112E0052818D008281AD009281CD00D
:104D70001E281ED105E00120F74948711DE01CE006
:104D800000BF0220F449487117E00120F249887100
:104D900013E0FF20F04988710FE00020EE49887190
:104DA0000BE00120EC49C87107E00020EA49C87116
:104DB00003E00320E849087000BF00BF00BF00BF48
:104DC0001598A0B10121159801FA00F02099084228
:104DD00003D00520E049087007E00121159801FA89
:104DE00000F02099084380B220900020159024AB59
:104DF00022A923A8269AFFF7FAFD00287FF441AEE6
:104E0000D548007810B1D44800782DE600202490D1
:104E10007CE09DF88C004638152872D2DFE800F05F
:104E20000E0B71242526300C0D713671393E4771F9
:104E30007171555E670000BF00BF66E000212298D7
:104E400003F070FA02D80620C3490870C24880787F
:104E500020B12298FFF7B3FD1E9004E02298FFF7DF
:104E6000AEFDBD49886050E000BF00BF2298FFF74B
:104E7000A6FD9DF88C10493916AA42F8210044E09D
:104E8000229803F003FAC0B212903EE022981490E8
:104E90003BE02298FFF793FD139036E00021229823
:104EA00003F040FA02D20620AB4908702DE0002141
:104EB000229803F037FA02D20620A74908702298F8
:104EC00003F0E4F9A44908761FE02298FFF777FD84
:104ED00019901F9840F001001F9016E02298FFF7EC
:104EE0006EFD1A901F9840F002001F900DE022986E
:104EF000FFF765FD1B901F9840F004001F9004E031
:104F0000FFE703209449087000BF00BF24AB22A92B
:104F100023A8269AFFF76BFD00287FF47AAF8E480E
:104F2000007810B18C4800789EE58C4840780728BE
:104F30000AD0894890F906000B90FDF7E0FE8648FC
:104F4000C0790B90FDF717FF209810F4007F0ED06A
:104F50008148007F09A90890FFF771F808B90A2075
:104F600082E57D4809A90EC920300EC000BF1C98FB
:104F7000092816D2DFE800F015051685F986F8F73E
:104F8000F6000021149803F0CDF903D206207249EF
:104F9000087006E071484078072802D01498FFF79F
:104FA000C7FB4FE1149803F055F92190129802289D
:104FB00002D01298142805D12198002802DB2198EC
:104FC000062803DD03206449087057E01F9830B9B4
:104FD0001298022803D106205F4908704EE02198FC
:104FE000002803DD2198401E219002E05A48007FEE
:104FF00021900FA92198C0B2FFF721F808B90A2023
:1050000032E500200E9027E001210E9801FA00F011
:105010001F9908421CD01298142812D119A90E9871
:1050200051F820000B904C480C300E9950F821009C
:105030000A900B9903F0B8FA0FAA0E9942F82100D2
:1050400006E019A90E9851F820100FAA42F8201076
:105050000E98401CC0B20E900E980328D4DB0FA906
:105060002198C0B2FEF77EFF3B48017F2198814224
:1050700004D139480FA90EC920300EC000201F905E
:10508000E0E000BF1F98E0B300200B9047E0012153
:105090000B9801FA00F01F99084233D02E4800798E
:1050A000E0B12D482C300B9950F8210009902A4886
:1050B000203050F821000890099902F067FF19A9E3
:1050C0000A900B9851F82000014609900A9802F0C6
:1050D0005DFF19AA0B9942F821001CE01E480C3014
:1050E0000B9950F8210019A90A900B9851F820004B
:1050F00009900A9902F04AFF19AA0B9942F8210077
:1051000009E01FE014480C300B9950F8211019AA3F
:105110000B9842F820100B98401CC0B20B900B98D3
:105120000328B4DB00230E48009340690A901B98C3
:1051300009901A9808901998079008A90EC9FFF7C6
:1051400017F900BF1C98052810D10FA90720FEF7FA
:1051500076FF90B90A2087E4280700201800002075
:10516000E806002068E02FE01FE01DE00FA9062000
:10517000FEF765FF08B90A2076E40023FF48009394
:1051800040690B9011980A90109809900F98089018
:1051900009A90EC9FFF7ECF8F9480FA90EC90C30A0
:1051A0000EC000201F904DE000BF1C98062805D1BE
:1051B000F3490C310720FEF7D5FE04E0F0490C312D
:1051C0000620FEF7CFFE3DE01F9818B90620EC49F7
:1051D00008702EE000200B9027E001210B9801FAC7
:1051E00000F01F9908421CD0E54820300B9950F878
:1051F00021000990E2480C3050F8210008900999EC
:1052000003F0D2F919A90A900B9851F82000014631
:1052100009900A9803F0C8F9D9492C310B9A41F842
:1052200022000B98401CC0B20B900B980228D4DDD2
:1052300000BF00201F9005E0D1480021C16201633A
:10524000416300BF00BF209810F0040F01D11F98E8
:10525000F0B3CB48807858B100211E9803F062F873
:1052600006D2C7484078042802D00620C4490870F6
:105270001D9848B1C248407830B1C14840780128F3
:1052800002D00620BE490870BD48007810B1BC4865
:105290000078BAE500200E904AE001210E9801FA4C
:1052A00000F01F99084236D01D9800BBB448007921
:1052B000F0B1B3482C300E9950F821000A90B04854
:1052C000203050F8210009900A9902F05FFE00E0BA
:1052D000ACE119A90B900E9851F8200001460A90F4
:1052E0000B9802F053FE19AA0E9942F821001BE018
:1052F000A3480C300E9950F8210019A90B900E9874
:1053000051F820000A900B9902F040FE19AA0E995C
:1053100042F8210008E09A480C300E9950F821100C
:1053200019AA0E9842F820100E98401CC0B20E9098
:105330000E980228B1DD92484078052809D2DFE8AE
:1053400000F0091F3A3B03001F9810B106208C495A
:1053500008705FE11F9818B90620894908700EE0AF
:1053600000238648009340690B901B980A901A9876
:1053700009901998089009A90EC9FEF7F9FF49E1AB
:105380001F9818B906207E49087013E07C4883787E
:105390000093807808B11E9801E0794880680B90EE
:1053A0001B980A901A9809901998089009A90EC993
:1053B000FEF7DEFF2EE100BF7148C07E0121814073
:1053C0001F9888431F9018D00021139802F00EFFF9
:1053D00017D16B48407E16A951F8200000210B9090
:1053E00002F004FF0DD16648807E16A951F8200016
:1053F00000210B9002F0FAFE03D1062060490870EC
:1054000007E10021139802F0F1FE7DD05C48417E57
:105410000C3050F8210009905948407E19A951F8E4
:1054200020000890099903F0BFF80B905448817E42
:105430000C3050F8210009905148807E19A951F88C
:1054400020000890099903F0AFF80A900020169008
:10545000179018900A99084602F098FF09900B9946
:10546000084602F093FF07904FF08140139902F035
:105470008DFF0590139902F089FF0690079903F0BC
:1054800093F80890099903F08FF80C9000210C987C
:1054900002F048FF05D20420394908700846007818
:1054A000B3E40A9802F046FDCDE902010B9802F040
:1054B00041FDCDE90001DDE9022301F01BFDCDE94D
:1054C00006010C9802F036FDCDE9020101F0B8FEAC
:1054D00081F00041CDE90401DDE9062301F0C2FFBE
:1054E000CDE9080101F0D2FE0C9025484078032850
:1054F00003D10C9880F000400C900021139802F02A
:1055000011FF09D20C9800E042E080F000400C90BE
:10551000139880F0004013900C990A9802F036FF1F
:1055200004900B9903F036F8059002F003FD002279
:10553000144BCDE9060102F0EDF9CDE9080101F0C7
:10554000A5FE0F49497E16AA42F82100DDE90B01AC
:1055500002F01CFF04900A9902F018FD059002F079
:10556000E9FC0022074BCDE9060102F0D3F9CDE9B1
:10557000080101F08BFE0249897E05E0E806002063
:10558000280700200000E03F16AA42F821001CE096
:105590003148807E16A951F82000059002F0CAFC1F
:1055A000CDE908012C48407E16A951F8200005904D
:1055B00002F0C0FCCDE90601DDE9082301F09AFC08
:1055C000CDE90A0101F062FE139000200D902248FF
:1055D0004078022801D101200D901F488178807801
:1055E0000D9B139A08B11E9801E01B488068CDE915
:1055F0000423CDE902011848C37E827ECDE9002351
:10560000407E034616AA19A90B9013480C30FEF7EA
:10561000DDFE00BF00BF1048007810B10E480078D2
:1056200082E40D4819A90EC90C300EC00A48407911
:1056300070B100F078FA00200849087406484079F3
:10564000022802D1FFF746F902E000210248417129
:105650000148007868E400002807002018000020B6
:10566000411CC8B2122800D10020704700B9122096
:10567000411EC8B270472DE9F04704460D46164654
:1056800031464FF0804002F081FE804621462046A0
:1056900002F07CFE81462946284602F077FE8246CB
:1056A000494602F081FF0746414602F0DDFCBDE8B5
:1056B000F0872DE9FE4F04460D4616461F4631463B
:1056C0004FF0814002F062FE29460290284602F027
:1056D0005DFE83462146204602F058FE3146019089
:1056E0004FF0804002F052FE3946009002F04EFE2C
:1056F0008246019902F058FF8146594602F046FC65
:105700008046029902F0B0FCBDE8FE8F2DE9FE4F05
:105710008246884691464FF08041504602F036FE60
:105720004946009002F032FE41460290404602F0A7
:105730002DFE0190029902F037FF834602F0FAFB3A
:10574000064601F07DFD044601F0A0FDBDE8FE8F98
:105750002DE9F04180460C4615460CB9BDE8F081B4
:1057600065B3D4E9060102F041FD27D094F8250085
:10577000F8B9A969E06902F0DCFE1AD2FF48006AB4
:1057800080F00047226A3846A969FFF7BFFF064646
:10579000E16902F0CEFE01D2E06908E0F748006A54
:1057A00080F00046226A3046A969FFF7AFFFA0618A
:1057B00001E0E069A061012084F8240000BFCDE78A
:1057C0003EB5EF48047800200090019002900FE071
:1057D0002046FFF74BFF0446019802900098019085
:1057E000E84800EB841000909DE80700FFF7B0FF49
:1057F000E54800788442EBD13EBD2DE9F0470446F0
:105800000D4691460CB9BDE8F08794F8250040BBE1
:10581000A969A06902F086FD23D2D848006A80F009
:1058200000484046226AA169FFF770FF0746A96950
:1058300002F07FFE01D2A86908E0D048006A80F03B
:1058400000473846226AA169FFF760FF06463146E5
:10585000A86902F0CBFC03D0AE61012085F82400DA
:1058600000BF00BFCFE73EB5C748047800200090D6
:10587000019002900FE00198009002980190C148B9
:1058800000EB841002909DE80700FFF7B6FF20466A
:10589000FFF7E6FE0446BA4800788442EBD10022C6
:1058A000DDE90101FFF7A9FF3EBD2DE9F74F88B003
:1058B00006469046F06B02F021FD0390099902F034
:1058C00065FD834602F036FBCDE9040101F0E0F905
:1058D000044601F08BFFB062F06B02F00FFD414611
:1058E000039002F053FD834602F024FB044601F0CE
:1058F000CFF9CDE9040101F079FFF0623222316B7A
:1059000001FB02F001F09FFF044600229F4B02F0D2
:1059100001F8CDE9040101F039FF8146484602F063
:10592000D5FC0390F06B02F0E9FC0290B06A02F043
:10593000E5FC0190DDE90212FFF79DFE834602F0CF
:10594000F9FACDE9040101F0A3F9044601F01EFFC4
:105950000746C9F1000002F0B9FC0390F06A02F0BA
:10596000CDFC0290F06B02F0C9FC0190DDE902125F
:10597000FFF781FE834602F0DDFACDE9040101F074
:105980004BFA044601F002FF06903069C11B0698ED
:10599000A1EB000ABAF1000F2DDA306902F096FC93
:1059A0000390484602F092FC0290F06A02F0A6FCD6
:1059B0000190B06A02F0A2FC009001A90EC9FFF7A5
:1059C00078FE834602F0B6FACDE9040101F060F9F1
:1059D000044601F0DBFE0746002F01DD384600E0FB
:1059E000002007463069B84201DD384600E03069E2
:1059F00007464FF0000A776307EB0A00B0630BB06D
:105A0000BDE8F08F2DE9F84F5F4890F800A04FF007
:105A1000000924E0C8465B4800EB8A19B8F1000F82
:105A200019D098F8240010B999F8240098B1D8F842
:105A30001410D9F8180002F017FB0446D8E9051035
:105A400002F012FB0546224601464046FFF72DFFB5
:105A5000002088F824005046FFF702FE824648489E
:105A600000788245D6D1D9F8140002F063FA0646D0
:105A700002460B460020014601F0F4FC044601F00A
:105A800005FC8346D9E9051002F0EEFA5A460146B4
:105A900000904846FFF709FF002089F82400BDE880
:105AA000F88F10B5FFF78CFEFFF7DDFEFFF7AAFFBA
:105AB00010BD10B53248007833490870304800787E
:105AC000FFF7CEFD3249087010BD10B5FFF7F1FFAA
:105AD0001C21304800F064FB10BD10B52848007848
